{
  "_format": "hh-sol-artifact-1",
  "contractName": "CarbonCreditNFT",
  "sourceName": "contracts/CarbonCreditNFT.sol",
  "abi": [
    {
      "inputs": [],
      "stateMutability": "nonpayable",
      "type": "constructor"
    },
    {
      "inputs": [
        {
          "internalType": "address",
          "name": "sender",
          "type": "address"
        },
        {
          "internalType": "uint256",
          "name": "tokenId",
          "type": "uint256"
        },
        {
          "internalType": "address",
          "name": "owner",
          "type": "address"
        }
      ],
      "name": "ERC721IncorrectOwner",
      "type": "error"
    },
    {
      "inputs": [
        {
          "internalType": "address",
          "name": "operator",
          "type": "address"
        },
        {
          "internalType": "uint256",
          "name": "tokenId",
          "type": "uint256"
        }
      ],
      "name": "ERC721InsufficientApproval",
      "type": "error"
    },
    {
      "inputs": [
        {
          "internalType": "address",
          "name": "approver",
          "type": "address"
        }
      ],
      "name": "ERC721InvalidApprover",
      "type": "error"
    },
    {
      "inputs": [
        {
          "internalType": "address",
          "name": "operator",
          "type": "address"
        }
      ],
      "name": "ERC721InvalidOperator",
      "type": "error"
    },
    {
      "inputs": [
        {
          "internalType": "address",
          "name": "owner",
          "type": "address"
        }
      ],
      "name": "ERC721InvalidOwner",
      "type": "error"
    },
    {
      "inputs": [
        {
          "internalType": "address",
          "name": "receiver",
          "type": "address"
        }
      ],
      "name": "ERC721InvalidReceiver",
      "type": "error"
    },
    {
      "inputs": [
        {
          "internalType": "address",
          "name": "sender",
          "type": "address"
        }
      ],
      "name": "ERC721InvalidSender",
      "type": "error"
    },
    {
      "inputs": [
        {
          "internalType": "uint256",
          "name": "tokenId",
          "type": "uint256"
        }
      ],
      "name": "ERC721NonexistentToken",
      "type": "error"
    },
    {
      "inputs": [
        {
          "internalType": "address",
          "name": "owner",
          "type": "address"
        }
      ],
      "name": "OwnableInvalidOwner",
      "type": "error"
    },
    {
      "inputs": [
        {
          "internalType": "address",
          "name": "account",
          "type": "address"
        }
      ],
      "name": "OwnableUnauthorizedAccount",
      "type": "error"
    },
    {
      "anonymous": false,
      "inputs": [
        {
          "indexed": true,
          "internalType": "address",
          "name": "owner",
          "type": "address"
        },
        {
          "indexed": true,
          "internalType": "address",
          "name": "approved",
          "type": "address"
        },
        {
          "indexed": true,
          "internalType": "uint256",
          "name": "tokenId",
          "type": "uint256"
        }
      ],
      "name": "Approval",
      "type": "event"
    },
    {
      "anonymous": false,
      "inputs": [
        {
          "indexed": true,
          "internalType": "address",
          "name": "owner",
          "type": "address"
        },
        {
          "indexed": true,
          "internalType": "address",
          "name": "operator",
          "type": "address"
        },
        {
          "indexed": false,
          "internalType": "bool",
          "name": "approved",
          "type": "bool"
        }
      ],
      "name": "ApprovalForAll",
      "type": "event"
    },
    {
      "anonymous": false,
      "inputs": [
        {
          "indexed": false,
          "internalType": "uint256",
          "name": "_fromTokenId",
          "type": "uint256"
        },
        {
          "indexed": false,
          "internalType": "uint256",
          "name": "_toTokenId",
          "type": "uint256"
        }
      ],
      "name": "BatchMetadataUpdate",
      "type": "event"
    },
    {
      "anonymous": false,
      "inputs": [
        {
          "indexed": false,
          "internalType": "uint256",
          "name": "_tokenId",
          "type": "uint256"
        }
      ],
      "name": "MetadataUpdate",
      "type": "event"
    },
    {
      "anonymous": false,
      "inputs": [
        {
          "indexed": false,
          "internalType": "address",
          "name": "recipient",
          "type": "address"
        },
        {
          "indexed": false,
          "internalType": "uint256",
          "name": "tokenId",
          "type": "uint256"
        },
        {
          "indexed": false,
          "internalType": "string",
          "name": "tokenURI",
          "type": "string"
        }
      ],
      "name": "NFTMinted",
      "type": "event"
    },
    {
      "anonymous": false,
      "inputs": [
        {
          "indexed": true,
          "internalType": "address",
          "name": "previousOwner",
          "type": "address"
        },
        {
          "indexed": true,
          "internalType": "address",
          "name": "newOwner",
          "type": "address"
        }
      ],
      "name": "OwnershipTransferred",
      "type": "event"
    },
    {
      "anonymous": false,
      "inputs": [
        {
          "indexed": true,
          "internalType": "address",
          "name": "from",
          "type": "address"
        },
        {
          "indexed": true,
          "internalType": "address",
          "name": "to",
          "type": "address"
        },
        {
          "indexed": true,
          "internalType": "uint256",
          "name": "tokenId",
          "type": "uint256"
        }
      ],
      "name": "Transfer",
      "type": "event"
    },
    {
      "inputs": [
        {
          "internalType": "address",
          "name": "to",
          "type": "address"
        },
        {
          "internalType": "uint256",
          "name": "tokenId",
          "type": "uint256"
        }
      ],
      "name": "approve",
      "outputs": [],
      "stateMutability": "nonpayable",
      "type": "function"
    },
    {
      "inputs": [
        {
          "internalType": "address",
          "name": "owner",
          "type": "address"
        }
      ],
      "name": "balanceOf",
      "outputs": [
        {
          "internalType": "uint256",
          "name": "",
          "type": "uint256"
        }
      ],
      "stateMutability": "view",
      "type": "function"
    },
    {
      "inputs": [
        {
          "internalType": "uint256",
          "name": "tokenId",
          "type": "uint256"
        }
      ],
      "name": "getApproved",
      "outputs": [
        {
          "internalType": "address",
          "name": "",
          "type": "address"
        }
      ],
      "stateMutability": "view",
      "type": "function"
    },
    {
      "inputs": [
        {
          "internalType": "address",
          "name": "user",
          "type": "address"
        }
      ],
      "name": "getUserPoints",
      "outputs": [
        {
          "internalType": "uint256",
          "name": "",
          "type": "uint256"
        }
      ],
      "stateMutability": "view",
      "type": "function"
    },
    {
      "inputs": [
        {
          "internalType": "address",
          "name": "owner",
          "type": "address"
        },
        {
          "internalType": "address",
          "name": "operator",
          "type": "address"
        }
      ],
      "name": "isApprovedForAll",
      "outputs": [
        {
          "internalType": "bool",
          "name": "",
          "type": "bool"
        }
      ],
      "stateMutability": "view",
      "type": "function"
    },
    {
      "inputs": [
        {
          "internalType": "address",
          "name": "recipient",
          "type": "address"
        },
        {
          "internalType": "string",
          "name": "tokenURI",
          "type": "string"
        }
      ],
      "name": "mintNFT",
      "outputs": [
        {
          "internalType": "uint256",
          "name": "",
          "type": "uint256"
        }
      ],
      "stateMutability": "nonpayable",
      "type": "function"
    },
    {
      "inputs": [],
      "name": "name",
      "outputs": [
        {
          "internalType": "string",
          "name": "",
          "type": "string"
        }
      ],
      "stateMutability": "view",
      "type": "function"
    },
    {
      "inputs": [],
      "name": "owner",
      "outputs": [
        {
          "internalType": "address",
          "name": "",
          "type": "address"
        }
      ],
      "stateMutability": "view",
      "type": "function"
    },
    {
      "inputs": [
        {
          "internalType": "uint256",
          "name": "tokenId",
          "type": "uint256"
        }
      ],
      "name": "ownerOf",
      "outputs": [
        {
          "internalType": "address",
          "name": "",
          "type": "address"
        }
      ],
      "stateMutability": "view",
      "type": "function"
    },
    {
      "inputs": [],
      "name": "renounceOwnership",
      "outputs": [],
      "stateMutability": "nonpayable",
      "type": "function"
    },
    {
      "inputs": [
        {
          "internalType": "address",
          "name": "from",
          "type": "address"
        },
        {
          "internalType": "address",
          "name": "to",
          "type": "address"
        },
        {
          "internalType": "uint256",
          "name": "tokenId",
          "type": "uint256"
        }
      ],
      "name": "safeTransferFrom",
      "outputs": [],
      "stateMutability": "nonpayable",
      "type": "function"
    },
    {
      "inputs": [
        {
          "internalType": "address",
          "name": "from",
          "type": "address"
        },
        {
          "internalType": "address",
          "name": "to",
          "type": "address"
        },
        {
          "internalType": "uint256",
          "name": "tokenId",
          "type": "uint256"
        },
        {
          "internalType": "bytes",
          "name": "data",
          "type": "bytes"
        }
      ],
      "name": "safeTransferFrom",
      "outputs": [],
      "stateMutability": "nonpayable",
      "type": "function"
    },
    {
      "inputs": [
        {
          "internalType": "address",
          "name": "operator",
          "type": "address"
        },
        {
          "internalType": "bool",
          "name": "approved",
          "type": "bool"
        }
      ],
      "name": "setApprovalForAll",
      "outputs": [],
      "stateMutability": "nonpayable",
      "type": "function"
    },
    {
      "inputs": [
        {
          "internalType": "bytes4",
          "name": "interfaceId",
          "type": "bytes4"
        }
      ],
      "name": "supportsInterface",
      "outputs": [
        {
          "internalType": "bool",
          "name": "",
          "type": "bool"
        }
      ],
      "stateMutability": "view",
      "type": "function"
    },
    {
      "inputs": [],
      "name": "symbol",
      "outputs": [
        {
          "internalType": "string",
          "name": "",
          "type": "string"
        }
      ],
      "stateMutability": "view",
      "type": "function"
    },
    {
      "inputs": [],
      "name": "tokenCounter",
      "outputs": [
        {
          "internalType": "uint256",
          "name": "",
          "type": "uint256"
        }
      ],
      "stateMutability": "view",
      "type": "function"
    },
    {
      "inputs": [
        {
          "internalType": "uint256",
          "name": "tokenId",
          "type": "uint256"
        }
      ],
      "name": "tokenURI",
      "outputs": [
        {
          "internalType": "string",
          "name": "",
          "type": "string"
        }
      ],
      "stateMutability": "view",
      "type": "function"
    },
    {
      "inputs": [
        {
          "internalType": "address",
          "name": "from",
          "type": "address"
        },
        {
          "internalType": "address",
          "name": "to",
          "type": "address"
        },
        {
          "internalType": "uint256",
          "name": "tokenId",
          "type": "uint256"
        }
      ],
      "name": "transferFrom",
      "outputs": [],
      "stateMutability": "nonpayable",
      "type": "function"
    },
    {
      "inputs": [
        {
          "internalType": "address",
          "name": "newOwner",
          "type": "address"
        }
      ],
      "name": "transferOwnership",
      "outputs": [],
      "stateMutability": "nonpayable",
      "type": "function"
    },
    {
      "inputs": [
        {
          "internalType": "address",
          "name": "user",
          "type": "address"
        },
        {
          "internalType": "uint256",
          "name": "points",
          "type": "uint256"
        }
      ],
      "name": "updateUserPoints",
      "outputs": [],
      "stateMutability": "nonpayable",
      "type": "function"
    },
    {
      "inputs": [
        {
          "internalType": "address",
          "name": "",
          "type": "address"
        }
      ],
      "name": "userPoints",
      "outputs": [
        {
          "internalType": "uint256",
          "name": "",
          "type": "uint256"
        }
      ],
      "stateMutability": "view",
      "type": "function"
    }
  ],
  "bytecode": "0x608060405234801561001057600080fd5b50336040518060400160405280601181526020017f436172626f6e20437265646974204e46540000000000000000000000000000008152506040518060400160405280600581526020017f43434e4654000000000000000000000000000000000000000000000000000000815250816000908161008d9190610445565b50806001908161009d9190610445565b505050600073ffffffffffffffffffffffffffffffffffffffff168173ffffffffffffffffffffffffffffffffffffffff16036101125760006040517f1e4fbdf70000000000000000000000000000000000000000000000000000000081526004016101099190610558565b60405180910390fd5b6101218161012f60201b60201c565b506000600881905550610573565b6000600760009054906101000a900473ffffffffffffffffffffffffffffffffffffffff16905081600760006101000a81548173ffffffffffffffffffffffffffffffffffffffff021916908373ffffffffffffffffffffffffffffffffffffffff1602179055508173ffffffffffffffffffffffffffffffffffffffff168173ffffffffffffffffffffffffffffffffffffffff167f8be0079c531659141344cd1fd0a4f28419497f9722a3daafe3b4186f6b6457e060405160405180910390a35050565b600081519050919050565b7f4e487b7100000000000000000000000000000000000000000000000000000000600052604160045260246000fd5b7f4e487b7100000000000000000000000000000000000000000000000000000000600052602260045260246000fd5b6000600282049050600182168061027657607f821691505b6020821081036102895761028861022f565b5b50919050565b60008190508160005260206000209050919050565b60006020601f8301049050919050565b600082821b905092915050565b6000600883026102f17fffffffffffffffffffffffffffffffffffffffffffffffffffffffffffffffff826102b4565b6102fb86836102b4565b95508019841693508086168417925050509392505050565b6000819050919050565b6000819050919050565b600061034261033d61033884610313565b61031d565b610313565b9050919050565b6000819050919050565b61035c83610327565b61037061036882610349565b8484546102c1565b825550505050565b600090565b610385610378565b610390818484610353565b505050565b5b818110156103b4576103a960008261037d565b600181019050610396565b5050565b601f8211156103f9576103ca8161028f565b6103d3846102a4565b810160208510156103e2578190505b6103f66103ee856102a4565b830182610395565b50505b505050565b600082821c905092915050565b600061041c600019846008026103fe565b1980831691505092915050565b6000610435838361040b565b9150826002028217905092915050565b61044e826101f5565b67ffffffffffffffff81111561046757610466610200565b5b610471825461025e565b61047c8282856103b8565b600060209050601f8311600181146104af576000841561049d578287015190505b6104a78582610429565b86555061050f565b601f1984166104bd8661028f565b60005b828110156104e5578489015182556001820191506020850194506020810190506104c0565b8683101561050257848901516104fe601f89168261040b565b8355505b6001600288020188555050505b505050505050565b600073ffffffffffffffffffffffffffffffffffffffff82169050919050565b600061054282610517565b9050919050565b61055281610537565b82525050565b600060208201905061056d6000830184610549565b92915050565b612879806105826000396000f3fe608060405234801561001057600080fd5b50600436106101375760003560e01c806395d89b41116100b8578063c87b56dd1161007c578063c87b56dd14610338578063d082e38114610368578063e985e9c514610386578063eacabe14146103b6578063f2fde38b146103e6578063f50ddbc71461040257610137565b806395d89b41146102965780639bf8edae146102b4578063a22cb465146102d0578063aeefe31f146102ec578063b88d4fde1461031c57610137565b806342842e0e116100ff57806342842e0e146101f25780636352211e1461020e57806370a082311461023e578063715018a61461026e5780638da5cb5b1461027857610137565b806301ffc9a71461013c57806306fdde031461016c578063081812fc1461018a578063095ea7b3146101ba57806323b872dd146101d6575b600080fd5b61015660048036038101906101519190611ca7565b610432565b6040516101639190611cef565b60405180910390f35b610174610493565b6040516101819190611d9a565b60405180910390f35b6101a4600480360381019061019f9190611df2565b610525565b6040516101b19190611e60565b60405180910390f35b6101d460048036038101906101cf9190611ea7565b610541565b005b6101f060048036038101906101eb9190611ee7565b610557565b005b61020c60048036038101906102079190611ee7565b610659565b005b61022860048036038101906102239190611df2565b610679565b6040516102359190611e60565b60405180910390f35b61025860048036038101906102539190611f3a565b61068b565b6040516102659190611f76565b60405180910390f35b610276610745565b005b610280610759565b60405161028d9190611e60565b60405180910390f35b61029e610783565b6040516102ab9190611d9a565b60405180910390f35b6102ce60048036038101906102c99190611ea7565b610815565b005b6102ea60048036038101906102e59190611fbd565b610877565b005b61030660048036038101906103019190611f3a565b61088d565b6040516103139190611f76565b60405180910390f35b61033660048036038101906103319190612132565b6108d6565b005b610352600480360381019061034d9190611df2565b6108fb565b60405161035f9190611d9a565b60405180910390f35b610370610a0e565b60405161037d9190611f76565b60405180910390f35b6103a0600480360381019061039b91906121b5565b610a14565b6040516103ad9190611cef565b60405180910390f35b6103d060048036038101906103cb9190612296565b610aa8565b6040516103dd9190611f76565b60405180910390f35b61040060048036038101906103fb9190611f3a565b610b2c565b005b61041c60048036038101906104179190611f3a565b610bb2565b6040516104299190611f76565b60405180910390f35b6000634906490660e01b7bffffffffffffffffffffffffffffffffffffffffffffffffffffffff1916827bffffffffffffffffffffffffffffffffffffffffffffffffffffffff1916148061048c575061048b82610bca565b5b9050919050565b6060600080546104a290612321565b80601f01602080910402602001604051908101604052809291908181526020018280546104ce90612321565b801561051b5780601f106104f05761010080835404028352916020019161051b565b820191906000526020600020905b8154815290600101906020018083116104fe57829003601f168201915b5050505050905090565b600061053082610cac565b5061053a82610d34565b9050919050565b610553828261054e610d71565b610d79565b5050565b600073ffffffffffffffffffffffffffffffffffffffff168273ffffffffffffffffffffffffffffffffffffffff16036105c95760006040517f64a0ae920000000000000000000000000000000000000000000000000000000081526004016105c09190611e60565b60405180910390fd5b60006105dd83836105d8610d71565b610d8b565b90508373ffffffffffffffffffffffffffffffffffffffff168173ffffffffffffffffffffffffffffffffffffffff1614610653578382826040517f64283d7b00000000000000000000000000000000000000000000000000000000815260040161064a93929190612352565b60405180910390fd5b50505050565b610674838383604051806020016040528060008152506108d6565b505050565b600061068482610cac565b9050919050565b60008073ffffffffffffffffffffffffffffffffffffffff168273ffffffffffffffffffffffffffffffffffffffff16036106fe5760006040517f89c62b640000000000000000000000000000000000000000000000000000000081526004016106f59190611e60565b60405180910390fd5b600360008373ffffffffffffffffffffffffffffffffffffffff1673ffffffffffffffffffffffffffffffffffffffff168152602001908152602001600020549050919050565b61074d610fa5565b610757600061102c565b565b6000600760009054906101000a900473ffffffffffffffffffffffffffffffffffffffff16905090565b60606001805461079290612321565b80601f01602080910402602001604051908101604052809291908181526020018280546107be90612321565b801561080b5780601f106107e05761010080835404028352916020019161080b565b820191906000526020600020905b8154815290600101906020018083116107ee57829003601f168201915b5050505050905090565b61081d610fa5565b80600960008473ffffffffffffffffffffffffffffffffffffffff1673ffffffffffffffffffffffffffffffffffffffff168152602001908152602001600020600082825461086c91906123b8565b925050819055505050565b610889610882610d71565b83836110f2565b5050565b6000600960008373ffffffffffffffffffffffffffffffffffffffff1673ffffffffffffffffffffffffffffffffffffffff168152602001908152602001600020549050919050565b6108e1848484610557565b6108f56108ec610d71565b85858585611261565b50505050565b606061090682610cac565b50600060066000848152602001908152602001600020805461092790612321565b80601f016020809104026020016040519081016040528092919081815260200182805461095390612321565b80156109a05780601f10610975576101008083540402835291602001916109a0565b820191906000526020600020905b81548152906001019060200180831161098357829003601f168201915b5050505050905060006109b1611412565b905060008151036109c6578192505050610a09565b6000825111156109fb5780826040516020016109e3929190612428565b60405160208183030381529060405292505050610a09565b610a0484611429565b925050505b919050565b60085481565b6000600560008473ffffffffffffffffffffffffffffffffffffffff1673ffffffffffffffffffffffffffffffffffffffff16815260200190815260200160002060008373ffffffffffffffffffffffffffffffffffffffff1673ffffffffffffffffffffffffffffffffffffffff16815260200190815260200160002060009054906101000a900460ff16905092915050565b6000610ab2610fa5565b60006008549050610ac38482611492565b610acd81846114b0565b600160086000828254610ae091906123b8565b925050819055507fd35bb95e09c04b219e35047ce7b7b300e3384264ef84a40456943dbc0fc17c14848285604051610b1a9392919061244c565b60405180910390a18091505092915050565b610b34610fa5565b600073ffffffffffffffffffffffffffffffffffffffff168173ffffffffffffffffffffffffffffffffffffffff1603610ba65760006040517f1e4fbdf7000000000000000000000000000000000000000000000000000000008152600401610b9d9190611e60565b60405180910390fd5b610baf8161102c565b50565b60096020528060005260406000206000915090505481565b60007f80ac58cd000000000000000000000000000000000000000000000000000000007bffffffffffffffffffffffffffffffffffffffffffffffffffffffff1916827bffffffffffffffffffffffffffffffffffffffffffffffffffffffff19161480610c9557507f5b5e139f000000000000000000000000000000000000000000000000000000007bffffffffffffffffffffffffffffffffffffffffffffffffffffffff1916827bffffffffffffffffffffffffffffffffffffffffffffffffffffffff1916145b80610ca55750610ca48261150c565b5b9050919050565b600080610cb883611576565b9050600073ffffffffffffffffffffffffffffffffffffffff168173ffffffffffffffffffffffffffffffffffffffff1603610d2b57826040517f7e273289000000000000000000000000000000000000000000000000000000008152600401610d229190611f76565b60405180910390fd5b80915050919050565b60006004600083815260200190815260200160002060009054906101000a900473ffffffffffffffffffffffffffffffffffffffff169050919050565b600033905090565b610d8683838360016115b3565b505050565b600080610d9784611576565b9050600073ffffffffffffffffffffffffffffffffffffffff168373ffffffffffffffffffffffffffffffffffffffff1614610dd957610dd8818486611778565b5b600073ffffffffffffffffffffffffffffffffffffffff168173ffffffffffffffffffffffffffffffffffffffff1614610e6a57610e1b6000856000806115b3565b6001600360008373ffffffffffffffffffffffffffffffffffffffff1673ffffffffffffffffffffffffffffffffffffffff168152602001908152602001600020600082825403925050819055505b600073ffffffffffffffffffffffffffffffffffffffff168573ffffffffffffffffffffffffffffffffffffffff1614610eed576001600360008773ffffffffffffffffffffffffffffffffffffffff1673ffffffffffffffffffffffffffffffffffffffff168152602001908152602001600020600082825401925050819055505b846002600086815260200190815260200160002060006101000a81548173ffffffffffffffffffffffffffffffffffffffff021916908373ffffffffffffffffffffffffffffffffffffffff160217905550838573ffffffffffffffffffffffffffffffffffffffff168273ffffffffffffffffffffffffffffffffffffffff167fddf252ad1be2c89b69c2b068fc378daa952ba7f163c4a11628f55a4df523b3ef60405160405180910390a4809150509392505050565b610fad610d71565b73ffffffffffffffffffffffffffffffffffffffff16610fcb610759565b73ffffffffffffffffffffffffffffffffffffffff161461102a57610fee610d71565b6040517f118cdaa70000000000000000000000000000000000000000000000000000000081526004016110219190611e60565b60405180910390fd5b565b6000600760009054906101000a900473ffffffffffffffffffffffffffffffffffffffff16905081600760006101000a81548173ffffffffffffffffffffffffffffffffffffffff021916908373ffffffffffffffffffffffffffffffffffffffff1602179055508173ffffffffffffffffffffffffffffffffffffffff168173ffffffffffffffffffffffffffffffffffffffff167f8be0079c531659141344cd1fd0a4f28419497f9722a3daafe3b4186f6b6457e060405160405180910390a35050565b600073ffffffffffffffffffffffffffffffffffffffff168273ffffffffffffffffffffffffffffffffffffffff160361116357816040517f5b08ba1800000000000000000000000000000000000000000000000000000000815260040161115a9190611e60565b60405180910390fd5b80600560008573ffffffffffffffffffffffffffffffffffffffff1673ffffffffffffffffffffffffffffffffffffffff16815260200190815260200160002060008473ffffffffffffffffffffffffffffffffffffffff1673ffffffffffffffffffffffffffffffffffffffff16815260200190815260200160002060006101000a81548160ff0219169083151502179055508173ffffffffffffffffffffffffffffffffffffffff168373ffffffffffffffffffffffffffffffffffffffff167f17307eab39ab6107e8899845ad3d59bd9653f200f220920489ca2b5937696c31836040516112549190611cef565b60405180910390a3505050565b60008373ffffffffffffffffffffffffffffffffffffffff163b111561140b578273ffffffffffffffffffffffffffffffffffffffff1663150b7a02868685856040518563ffffffff1660e01b81526004016112c094939291906124df565b6020604051808303816000875af19250505080156112fc57506040513d601f19601f820116820180604052508101906112f99190612540565b60015b611380573d806000811461132c576040519150601f19603f3d011682016040523d82523d6000602084013e611331565b606091505b50600081510361137857836040517f64a0ae9200000000000000000000000000000000000000000000000000000000815260040161136f9190611e60565b60405180910390fd5b805181602001fd5b63150b7a0260e01b7bffffffffffffffffffffffffffffffffffffffffffffffffffffffff1916817bffffffffffffffffffffffffffffffffffffffffffffffffffffffff19161461140957836040517f64a0ae920000000000000000000000000000000000000000000000000000000081526004016114009190611e60565b60405180910390fd5b505b5050505050565b606060405180602001604052806000815250905090565b606061143482610cac565b50600061143f611412565b9050600081511161145f576040518060200160405280600081525061148a565b806114698461183c565b60405160200161147a929190612428565b6040516020818303038152906040525b915050919050565b6114ac82826040518060200160405280600081525061190a565b5050565b806006600084815260200190815260200160002090816114d09190612719565b507ff8e1a15aba9398e019f0b49df1a4fde98ee17ae345cb5f6b5e2c27f5033e8ce7826040516115009190611f76565b60405180910390a15050565b60007f01ffc9a7000000000000000000000000000000000000000000000000000000007bffffffffffffffffffffffffffffffffffffffffffffffffffffffff1916827bffffffffffffffffffffffffffffffffffffffffffffffffffffffff1916149050919050565b60006002600083815260200190815260200160002060009054906101000a900473ffffffffffffffffffffffffffffffffffffffff169050919050565b80806115ec5750600073ffffffffffffffffffffffffffffffffffffffff168273ffffffffffffffffffffffffffffffffffffffff1614155b156117205760006115fc84610cac565b9050600073ffffffffffffffffffffffffffffffffffffffff168373ffffffffffffffffffffffffffffffffffffffff161415801561166757508273ffffffffffffffffffffffffffffffffffffffff168173ffffffffffffffffffffffffffffffffffffffff1614155b801561167a57506116788184610a14565b155b156116bc57826040517fa9fbf51f0000000000000000000000000000000000000000000000000000000081526004016116b39190611e60565b60405180910390fd5b811561171e57838573ffffffffffffffffffffffffffffffffffffffff168273ffffffffffffffffffffffffffffffffffffffff167f8c5be1e5ebec7d5bd14f71427d1e84f3dd0314c0f7b2291e5b200ac8c7c3b92560405160405180910390a45b505b836004600085815260200190815260200160002060006101000a81548173ffffffffffffffffffffffffffffffffffffffff021916908373ffffffffffffffffffffffffffffffffffffffff16021790555050505050565b61178383838361192e565b61183757600073ffffffffffffffffffffffffffffffffffffffff168373ffffffffffffffffffffffffffffffffffffffff16036117f857806040517f7e2732890000000000000000000000000000000000000000000000000000000081526004016117ef9190611f76565b60405180910390fd5b81816040517f177e802f00000000000000000000000000000000000000000000000000000000815260040161182e9291906127eb565b60405180910390fd5b505050565b60606000600161184b846119ef565b01905060008167ffffffffffffffff81111561186a57611869612007565b5b6040519080825280601f01601f19166020018201604052801561189c5781602001600182028036833780820191505090505b509050600082602001820190505b6001156118ff578080600190039150507f3031323334353637383961626364656600000000000000000000000000000000600a86061a8153600a85816118f3576118f2612814565b5b049450600085036118aa575b819350505050919050565b6119148383611b42565b61192961191f610d71565b6000858585611261565b505050565b60008073ffffffffffffffffffffffffffffffffffffffff168373ffffffffffffffffffffffffffffffffffffffff16141580156119e657508273ffffffffffffffffffffffffffffffffffffffff168473ffffffffffffffffffffffffffffffffffffffff1614806119a757506119a68484610a14565b5b806119e557508273ffffffffffffffffffffffffffffffffffffffff166119cd83610d34565b73ffffffffffffffffffffffffffffffffffffffff16145b5b90509392505050565b600080600090507a184f03e93ff9f4daa797ed6e38ed64bf6a1f0100000000000000008310611a4d577a184f03e93ff9f4daa797ed6e38ed64bf6a1f0100000000000000008381611a4357611a42612814565b5b0492506040810190505b6d04ee2d6d415b85acef81000000008310611a8a576d04ee2d6d415b85acef81000000008381611a8057611a7f612814565b5b0492506020810190505b662386f26fc100008310611ab957662386f26fc100008381611aaf57611aae612814565b5b0492506010810190505b6305f5e1008310611ae2576305f5e1008381611ad857611ad7612814565b5b0492506008810190505b6127108310611b07576127108381611afd57611afc612814565b5b0492506004810190505b60648310611b2a5760648381611b2057611b1f612814565b5b0492506002810190505b600a8310611b39576001810190505b80915050919050565b600073ffffffffffffffffffffffffffffffffffffffff168273ffffffffffffffffffffffffffffffffffffffff1603611bb45760006040517f64a0ae92000000000000000000000000000000000000000000000000000000008152600401611bab9190611e60565b60405180910390fd5b6000611bc283836000610d8b565b9050600073ffffffffffffffffffffffffffffffffffffffff168173ffffffffffffffffffffffffffffffffffffffff1614611c365760006040517f73c6ac6e000000000000000000000000000000000000000000000000000000008152600401611c2d9190611e60565b60405180910390fd5b505050565b6000604051905090565b600080fd5b600080fd5b60007fffffffff0000000000000000000000000000000000000000000000000000000082169050919050565b611c8481611c4f565b8114611c8f57600080fd5b50565b600081359050611ca181611c7b565b92915050565b600060208284031215611cbd57611cbc611c45565b5b6000611ccb84828501611c92565b91505092915050565b60008115159050919050565b611ce981611cd4565b82525050565b6000602082019050611d046000830184611ce0565b92915050565b600081519050919050565b600082825260208201905092915050565b60005b83811015611d44578082015181840152602081019050611d29565b60008484015250505050565b6000601f19601f8301169050919050565b6000611d6c82611d0a565b611d768185611d15565b9350611d86818560208601611d26565b611d8f81611d50565b840191505092915050565b60006020820190508181036000830152611db48184611d61565b905092915050565b6000819050919050565b611dcf81611dbc565b8114611dda57600080fd5b50565b600081359050611dec81611dc6565b92915050565b600060208284031215611e0857611e07611c45565b5b6000611e1684828501611ddd565b91505092915050565b600073ffffffffffffffffffffffffffffffffffffffff82169050919050565b6000611e4a82611e1f565b9050919050565b611e5a81611e3f565b82525050565b6000602082019050611e756000830184611e51565b92915050565b611e8481611e3f565b8114611e8f57600080fd5b50565b600081359050611ea181611e7b565b92915050565b60008060408385031215611ebe57611ebd611c45565b5b6000611ecc85828601611e92565b9250506020611edd85828601611ddd565b9150509250929050565b600080600060608486031215611f0057611eff611c45565b5b6000611f0e86828701611e92565b9350506020611f1f86828701611e92565b9250506040611f3086828701611ddd565b9150509250925092565b600060208284031215611f5057611f4f611c45565b5b6000611f5e84828501611e92565b91505092915050565b611f7081611dbc565b82525050565b6000602082019050611f8b6000830184611f67565b92915050565b611f9a81611cd4565b8114611fa557600080fd5b50565b600081359050611fb781611f91565b92915050565b60008060408385031215611fd457611fd3611c45565b5b6000611fe285828601611e92565b9250506020611ff385828601611fa8565b9150509250929050565b600080fd5b600080fd5b7f4e487b7100000000000000000000000000000000000000000000000000000000600052604160045260246000fd5b61203f82611d50565b810181811067ffffffffffffffff8211171561205e5761205d612007565b5b80604052505050565b6000612071611c3b565b905061207d8282612036565b919050565b600067ffffffffffffffff82111561209d5761209c612007565b5b6120a682611d50565b9050602081019050919050565b82818337600083830152505050565b60006120d56120d084612082565b612067565b9050828152602081018484840111156120f1576120f0612002565b5b6120fc8482856120b3565b509392505050565b600082601f83011261211957612118611ffd565b5b81356121298482602086016120c2565b91505092915050565b6000806000806080858703121561214c5761214b611c45565b5b600061215a87828801611e92565b945050602061216b87828801611e92565b935050604061217c87828801611ddd565b925050606085013567ffffffffffffffff81111561219d5761219c611c4a565b5b6121a987828801612104565b91505092959194509250565b600080604083850312156121cc576121cb611c45565b5b60006121da85828601611e92565b92505060206121eb85828601611e92565b9150509250929050565b600067ffffffffffffffff8211156122105761220f612007565b5b61221982611d50565b9050602081019050919050565b6000612239612234846121f5565b612067565b90508281526020810184848401111561225557612254612002565b5b6122608482856120b3565b509392505050565b600082601f83011261227d5761227c611ffd565b5b813561228d848260208601612226565b91505092915050565b600080604083850312156122ad576122ac611c45565b5b60006122bb85828601611e92565b925050602083013567ffffffffffffffff8111156122dc576122db611c4a565b5b6122e885828601612268565b9150509250929050565b7f4e487b7100000000000000000000000000000000000000000000000000000000600052602260045260246000fd5b6000600282049050600182168061233957607f821691505b60208210810361234c5761234b6122f2565b5b50919050565b60006060820190506123676000830186611e51565b6123746020830185611f67565b6123816040830184611e51565b949350505050565b7f4e487b7100000000000000000000000000000000000000000000000000000000600052601160045260246000fd5b60006123c382611dbc565b91506123ce83611dbc565b92508282019050808211156123e6576123e5612389565b5b92915050565b600081905092915050565b600061240282611d0a565b61240c81856123ec565b935061241c818560208601611d26565b80840191505092915050565b600061243482856123f7565b915061244082846123f7565b91508190509392505050565b60006060820190506124616000830186611e51565b61246e6020830185611f67565b81810360408301526124808184611d61565b9050949350505050565b600081519050919050565b600082825260208201905092915050565b60006124b18261248a565b6124bb8185612495565b93506124cb818560208601611d26565b6124d481611d50565b840191505092915050565b60006080820190506124f46000830187611e51565b6125016020830186611e51565b61250e6040830185611f67565b818103606083015261252081846124a6565b905095945050505050565b60008151905061253a81611c7b565b92915050565b60006020828403121561255657612555611c45565b5b60006125648482850161252b565b91505092915050565b60008190508160005260206000209050919050565b60006020601f8301049050919050565b600082821b905092915050565b6000600883026125cf7fffffffffffffffffffffffffffffffffffffffffffffffffffffffffffffffff82612592565b6125d98683612592565b95508019841693508086168417925050509392505050565b6000819050919050565b600061261661261161260c84611dbc565b6125f1565b611dbc565b9050919050565b6000819050919050565b612630836125fb565b61264461263c8261261d565b84845461259f565b825550505050565b600090565b61265961264c565b612664818484612627565b505050565b5b818110156126885761267d600082612651565b60018101905061266a565b5050565b601f8211156126cd5761269e8161256d565b6126a784612582565b810160208510156126b6578190505b6126ca6126c285612582565b830182612669565b50505b505050565b600082821c905092915050565b60006126f0600019846008026126d2565b1980831691505092915050565b600061270983836126df565b9150826002028217905092915050565b61272282611d0a565b67ffffffffffffffff81111561273b5761273a612007565b5b6127458254612321565b61275082828561268c565b600060209050601f8311600181146127835760008415612771578287015190505b61277b85826126fd565b8655506127e3565b601f1984166127918661256d565b60005b828110156127b957848901518255600182019150602085019450602081019050612794565b868310156127d657848901516127d2601f8916826126df565b8355505b6001600288020188555050505b505050505050565b60006040820190506128006000830185611e51565b61280d6020830184611f67565b9392505050565b7f4e487b7100000000000000000000000000000000000000000000000000000000600052601260045260246000fdfea2646970667358221220dfd11ad98e69cd71b638442647b8d4a90d741842b5bfcbeaa6c262889af12c5c64736f6c634300081c0033",
  "linkReferences": {},
  "deployedLinkReferences": {}
}